S01400004144435F70726163746963652E737265639E
S11300000C9434000C9449000C9449000C9449005D
S11300100C9449000C9449000C9449000C94490038
S11300200C9449000C9449000C9449000C94490028
S11300300C9449000C9449000C9449000C94490018
S11300400C9449000C9449000C9449000C94490008
S11300500C9449000C9449000C9449000C944900F8
S11300600C9449000C94490011241FBECFEFD8E032
S1130070DEBFCDBF11E0A0E0B1E0E0EEF0E002C0F1
S113008005900D92A030B107D9F70E944B000C9453
S11300906E000C9400008AE180937C0087ED8093CD
S11300A07A0080E280937E00EAE7F0E0A8E7B0E01F
S11300B0808180618083808180648083808184FFEB
S11300C0FDCF8D919C9111972FEF81EE94E02150FB
S11300D080409040E1F700C00000EACFF894FFCFE1
S9030000FC
