:100000000C9434000C9451000C9451000C94510049
:100010000C9451000C9451000C9451000C9451001C
:100020000C9451000C9451000C9451000C9451000C
:100030000C9451000C9451000C9451000C945100FC
:100040000C9451000C9451000C9451000C945100EC
:100050000C9451000C9451000C9451000C945100DC
:100060000C946C000C94510011241FBECFEFD8E00B
:10007000DEBFCDBF11E0A0E0B1E0EAE7F2E002C0F0
:1000800005900D92AE31B107D9F715E0AEE1B1E0C0
:1000900001C01D92AB32B107E1F70E94DC000C9465
:1000A0003B010C94000090931F0180931E017093FC
:1000B0002101609320010895F894880F8093BA007D
:1000C00085EC8093BC0078940895F8941092BC005D
:1000D0001092BA00789408951F920F920FB60F9263
:1000E00011242F933F934F935F936F937F938F933D
:1000F0009F93AF93BF93EF93FF938091B90090E0EC
:10010000887F90708038910569F0813891051CF4E2
:10011000009729F12AC0883A910579F0883B91052A
:1001200021F514C08091BB00E0911E01F0911F01E8
:10013000099585EC8093BC001BC0E0912001F091F3
:100140002101099585EC8093BC0012C0E09120014B
:10015000F0912101099585EC8093BC0009C0ECEB7E
:10016000F0E0108285EC808303C085EC8093BC00B6
:10017000FF91EF91BF91AF919F918F917F916F917F
:100180005F914F913F912F910F900FBE0F901F9055
:1001900018950895E82FF92FA0E0B1E08DE00D90BB
:1001A00001928150E1F7089580E169EC70E04AEC3A
:1001B00050E00E94090108950E94D400FFCF809171
:1001C000270590912805009739F4E0912301F091DB
:1001D000240187E291E00995E0912705F091280537
:1001E000E95DFE4F8081882341F484E28093BB0067
:1001F000109228051092270508958093BB008091E6
:10020000270590912805019690932805809327054E
:100210000895709326016093250150932401409323
:1002200023010E945C0080E291E06FED70E00E948B
:1002300053000895E0912501F09126010995089554
:100240002091290530912A05F901E95DFC4F808351
:10025000843251F487E293E010820E941A011092D6
:100260002A051092290508952F5F3F4F30932A05E4
:0A027000209329050895F894FFCFAC
:10027A0048656C6C6F20576F726C640A0068656C15
:0E028A006C6F2061767220776F726C640000DA
:00000001FF
