:100000000C9434000C9446000C9446000C9446006A
:100010000C9446000C9446000C9446000C94460048
:100020000C9446000C9446000C9446000C94460038
:100030000C9446000C9446000C9446000C94460028
:100040000C9446000C9446000C9446000C94460018
:100050000C9446000C9446000C9446000C94460008
:100060000C945A000C94460011241FBECFEFD8E028
:10007000DEBFCDBF25E0A0E0B1E001C01D92A431FC
:10008000B207E1F70E94B0010C9438020C94000012
:10009000909303018093020170930101609300012A
:1000A0000895F894880F8093BA0085EC8093BC0083
:1000B000789408951F920F920FB60F9211242F93E8
:1000C0003F934F935F936F937F938F939F93AF93E0
:1000D000BF93EF93FF938091B900887F803849F0F8
:1000E00018F4882319F128C0883A71F0883BA9F0E8
:1000F00023C08091BB00E0910201F09103010995BA
:1001000085EC8093BC001BC0E0910001F0910101DF
:10011000099585EC8093BC0012C0E0910001F0913C
:100120000101099585EC8093BC0009C0ECEBF0E07F
:10013000108285EC808303C085EC8093BC00FF9126
:10014000EF91BF91AF919F918F917F916F915F914F
:100150004F913F912F910F900FBE0F901F901895C8
:1001600008955C9A5D9881E08093040108955C98FD
:100170005D9A1092040108955E9A5F9881E08093E1
:10018000050108955E985F9A109205010895289AD6
:10019000299881E08093060108952898299A109261
:1001A000060108952A9A2B9881E08093070108950B
:1001B0002A982B9A1092070108952C9A2D9881E085
:1001C0008093080108952C982D9A109208010895A3
:1001D0002E9A2F9881E08093090108952E982F9AE6
:1001E000109209010895409A419881E080930A0194
:1001F00008954098419A10920A010895429A4398AE
:1002000081E080930B0108954298439A10920B016C
:1002100008950E94B1000E94BC000E94C7000E9485
:10022000D2000E94DD000E94E8000E94F3000E94BC
:10023000FE00089580910401882319F00E94B70000
:1002400008950E94B100089580910501882319F056
:100250000E94C20008950E94BC000895809106018A
:10026000882319F00E94CD0008950E94C7000895C8
:1002700080910701882319F00E94D80008950E94F8
:10028000D200089580910801882319F00E94E300AC
:1002900008950E94DD00089580910901882319F0D6
:1002A0000E94EE0008950E94E800089580910A01DE
:1002B000882319F00E94F90008950E94F300089520
:1002C00080910B01882319F00E94040108950E9477
:1002D000FE0008950E941202009719F40E9409017D
:1002E00008958130910519F40E941A010895823011
:1002F000910519F40E94240108958330910519F4A1
:100300000E942E0108958430910519F40E9438014D
:1003100008958530910519F40E94420108958630B0
:10032000910519F40E944C0108958730910519F444
:100330000E9456010895089711F40E9460010895E3
:100340008FEF84B99FE097B98AB95A9A0E94090140
:1003500040EB50E06AE671E084E10E94DD0108951F
:100360000E94A001FFCF80910E0190910F01892B77
:1003700039F4E0911001F091110184E191E00995C7
:10038000E0910E01F0910F01EC5EFE4F8081811132
:1003900008C084E28093BB0010920F0110920E01FE
:1003A00008958093BB0080910E0190910F010196FA
:1003B00090930F0180930E01089570931301609341
:1003C000120150931101409310010E94510063EB00
:1003D00071E084EF91E00E9448000895E0911201DD
:1003E000F09113010995089520910C0130910D01B0
:1003F000F901EC5EFC4F8083843269F4F901EC5E14
:10040000FC4F108284E193E00E94EE0110920D01F6
:1004100010920C0108952F5F3F4F30930D012093F0
:100420000C010895FC0188279927E8942191203236
:10043000E9F3293010F02E30C8F32B3241F02D3281
:1004400039F4689404C00E943002820F911D2191FA
:1004500020532A30C0F31EF4909581959F4F089544
:100460007AE0979F902D879F802D910D11240895FC
:04047000F894FFCF2E
:00000001FF
