:100000000C9434000C9446000C9446000C9446006A
:100010000C9446000C9446000C9446000C94460048
:100020000C9446000C9446000C9446000C94460038
:100030000C9446000C9446000C9446000C94460028
:100040000C9446000C9446000C9446000C94460018
:100050000C9446000C9446000C9446000C94460008
:100060000C945A000C94460011241FBECFEFD8E028
:10007000DEBFCDBF25E0A0E0B1E001C01D92AC30F5
:10008000B207E1F70E945F010C94E7010C940000B5
:10009000909303018093020170930101609300012A
:1000A0000895F894880F8093BA0085EC8093BC0083
:1000B000789408951F920F920FB60F9211242F93E8
:1000C0003F934F935F936F937F938F939F93AF93E0
:1000D000BF93EF93FF938091B900887F803849F0F8
:1000E00018F4882319F128C0883A71F0883BA9F0E8
:1000F00023C08091BB00E0910201F09103010995BA
:1001000085EC8093BC001BC0E0910001F0910101DF
:10011000099585EC8093BC0012C0E0910001F0913C
:100120000101099585EC8093BC0009C0ECEBF0E07F
:10013000108285EC808303C085EC8093BC00FF9126
:10014000EF91BF91AF919F918F917F916F915F914F
:100150004F913F912F910F900FBE0F901F901895C8
:1001600008950E94C101009711F45C9A08958130AE
:10017000910511F45D9A08958230910511F45E9A0B
:1001800008958330910511F45F9A089584309105A4
:1001900011F4289A08958530910511F4299A08954B
:1001A0008630910511F42A9A08958730910511F44B
:1001B0002B9A08958830910511F42C9A089589306E
:1001C000910511F42D9A08958A30910511F42E9A13
:1001D00008958B30910511F42F9A08958C30910574
:1001E00011F4409A08958D30910511F4419A0895C3
:1001F0008E30910511F4429A08958F30910511F4D3
:10020000439A08958031910511F45C9808958131E5
:10021000910511F45D9808958231910511F45E986D
:1002200008958331910511F45F9808958431910503
:1002300011F4289808958531910511F429980895AD
:100240008631910511F42A9808958731910511F4AA
:100250002B9808958831910511F42C9808958931CF
:10026000910511F42D9808958A31910511F42E9875
:1002700008958B31910511F42F9808958C319105D3
:1002800011F4409808958D31910511F44198089525
:100290008E31910511F4429808954F9709F44398CF
:1002A00008958FEF84B99FE097B98AB95A9A40EBC5
:1002B00050E061EB70E084E10E948C0108950E949F
:1002C0005101FFCF8091060190910701892B39F4EC
:1002D000E0910801F09109018CE091E00995E0912D
:1002E0000601F0910701E45FFE4F8081811108C093
:1002F00084E28093BB0010920701109206010895DA
:100300008093BB0080910601909107010196909324
:10031000070180930601089570930B0160930A0111
:1003200050930901409308010E94510062E671E078
:1003300083EA91E00E9448000895E0910A01F0915B
:100340000B01099508952091040130910501F901EF
:10035000E45FFC4F8083843269F4F901E45FFC4F71
:1003600010828CE093E00E949D0110920501109292
:10037000040108952F5F3F4F30930501209304013E
:100380000895FC0188279927E89421912032E9F308
:10039000293010F02E30C8F32B3241F02D3239F4D1
:1003A000689404C00E94DF01820F911D21912053A7
:1003B0002A30C0F31EF4909581959F4F08957AE0FE
:1003C000979F902D879F802D910D11240895F8946B
:0203D000FFCF5D
:00000001FF
