S01500006E5F6C696E655F73656E736F722E73726563A1
S11300000C9434000C9451000C9451000C94510045
S11300100C9451000C9451000C9451000C94510018
S11300200C9451000C9451000C9451000C94510008
S11300300C9451000C9451000C9451000C945100F8
S11300400C9451000C9451000C9451000C945100E8
S11300500C9451000C9451000C9451000C945100D8
S11300600C9465000C94510011241FBECFEFD8E00E
S1130070DEBFCDBF11E0A0E0B1E0E6EFF8E002C0E2
S113008005900D92AC30B107D9F725E0ACE0B1E0B2
S113009001C01D92A032B207E1F70E9411010C9435
S11300A079040C94000090930F0180930E017093D7
S11300B00D0160930C010895F894880F8093BA00A1
S11300C085EC8093BC00789408951F920F920FB62C
S11300D00F9211242F933F934F935F936F937F93CA
S11300E08F939F93AF93BF93EF93FF938091B90046
S11300F0887F803849F018F4882319F128C0883A99
S113010071F0883BA9F023C08091BB00E0910E01FF
S1130110F0910F01099585EC8093BC001BC0E09120
S11301200C01F0910D01099585EC8093BC0012C07F
S1130130E0910C01F0910D01099585EC8093BC00D0
S113014009C0ECEBF0E0108285EC808303C085EC01
S11301508093BC00FF91EF91BF91AF919F918F91DC
S11301607F916F915F914F913F912F910F900FBEAF
S11301700F901F9018950895E0E1F1E027812F93E7
S113018026812F9325812F9324812F9323812F93CD
S113019022812F9321812F9320812F9320E031E01E
S11301A03F932F939F938F930E948F018DB79EB798
S11301B00C960FB6F8949EBF0FBE8DBF0895ECE762
S11301C0F0E080818F73808380818064808380E805
S11301D080937A000895ECE7F0E09081907F892B7A
S11301E08083EAE7F0E0808180648083808186FDFB
S11301F0FDCF209178008091790090E0982F882796
S1130200820F911D08958FEF84B917B88AB94CEB0A
S113021050E06BEB70E080E10E945A010E94DF0025
S113022008950E940301C0E1D1E080E00E94EB0048
S11302309983888381E00E94EB009B838A8382E018
S11302400E94EB009D838C8383E00E94EB009F83DC
S11302508E8383EC99E00197F1F700C00000E5CFAD
S113026080911A0190911B01892B39F4E0911C01B2
S1130270F0911D0180E291E00995E0911A01F0915D
S11302801B01E05EFE4F8081811108C084E28093EF
S1130290BB0010921B0110921A0108958093BB00B9
S11302A080911A0190911B01019690931B018093F8
S11302B01A01089570931F0160931E0150931D014C
S11302C040931C010E945C0060E371E081E791E0CF
S11302D00E9453000895E0911E01F0911F010995B9
S11302E008952091180130911901F901E05EFC4F45
S11302F08083843269F4F901E05EFC4F108280E26D
S113030093E00E946B011092190110921801089554
S11303102F5F3F4F30931901209318010895AEE0E9
S1130320B0E0E5E9F1E00C9450040D891E8986E003
S11303308C831A8309838FEF9FE79E838D83AE019D
S1130340475E5F4F6F89788DCE0101960E94B1019F
S1130350EF81F885E00FF11F10822E96E4E00C94F3
S11303606C04ABE0B0E0E7EBF1E00C9442046C0108
S11303707B018A01FC0117821682838181FFCCC133
S1130380CE0101963C01F6019381F70193FD85911D
S113039093FF81917F01882309F4BAC1853239F42E
S11303A093FD859193FF81917F01853229F4B601F4
S11303B090E00E94A803E7CF912C212C312CFFE17F
S11303C0F315D8F08B3279F038F4803279F0833237
S11303D0A1F4232D20611DC08D3261F0803369F4B6
S11303E0232D216016C0832D8260382EE32DE46016
S11303F03E2E2AC0F32DF8601DC037FC2DC020ED21
S1130400280F2A3040F08E32B9F436FC81C1232DF6
S11304102064322E19C036FE06C08AE0989E200D54
S11304201124922E11C0EAE02E9E200D1124222EBA
S1130430F32DF0623F2E08C08C3621F4832D8068A2
S1130440382E02C0883641F4F70193FD859193FF5D
S113045081917F018111B3CF982F9F7D9554933063
S113046028F40C5F1F4F9FE399830DC0833631F04E
S1130470833771F0833509F059C021C0F8018081B8
S113048089830E5F1F4F88248394912C530113C0DA
S11304902801F2E04F0E511CF801A080B18036FE15
S11304A003C0692D70E002C06FEF7FEFC5010E94A9
S11304B09D034C018201F32DFF773F2E16C02801C6
S11304C022E0420E511CF801A080B18036FE03C028
S11304D0692D70E002C06FEF7FEFC5010E949203A7
S11304E04C01F32DF0683F2E820133FC1BC0822D9A
S11304F090E088169906B0F4B60180E290E00E947C
S1130500A8032A94F4CFF50137FC859137FE819135
S11305105F01B60190E00E94A80321102A9421E013
S1130520821A91088114910471F7E8C0843611F09D
S1130530893641F5F80137FE07C0608171818281F7
S113054093810C5F1F4F08C060817181072E000CDE
S1130550880B990B0E5F1F4FF32DFF763F2E97FFED
S113056009C090958095709561957F4F8F4F9F4FEF
S1130570F0683F2E2AE030E0A3010E94E403882EB5
S1130580861845C0853731F4232D2F7EB22E2AE0FC
S113059030E025C0932D997FB92E8F36C1F018F421
S11305A0883579F0B5C0803719F0883721F0B0C0AC
S11305B0E92FE061BE2EB4FE0DC0FB2DF460BF2E0A
S11305C009C034FE0AC0292F2660B22E06C028E0D6
S11305D030E005C020E130E002C020E132E0F80163
S11305E0B7FE07C060817181828193810C5F1F4FC8
S11305F006C06081718180E090E00E5F1F4FA3010F
S11306000E94E403882E8618FB2DFF773F2E36FECA
S11306100DC0232D2E7FA22E891458F434FE0BC056
S113062032FC09C0832D8E7EA82E05C0B82CA32CC5
S113063003C0B82C01C0B92CA4FE0FC0FE01E80D04
S1130640F11D8081803321F49A2D997EA92E09C051
S1130650A2FE06C0B394B39404C08A2D867809F030
S1130660B394A3FC11C0A0FE06C0B21488F4280CF5
S1130670922C9B180EC0B21460F4B60180E290E094
S11306800E94A803B394F7CFB21418F42B1802C035
S1130690982C212CA4FE10C0B60180E390E00E94A7
S11306A0A803A2FE17C0A1FC03C088E790E002C023
S11306B088E590E0B6010CC08A2D867859F0A1FE39
S11306C002C08BE201C080E2A7FC8DE2B60190E09B
S11306D00E94A803891438F4B60180E390E00E94D4
S11306E0A8039A94F7CF8A94F301E80DF11D808151
S11306F0B60190E00E94A8038110F5CF222009F4EE
S113070042CEB60180E290E00E94A8032A94F6CF7C
S1130710F6018681978102C08FEF9FEF2B96E2E16D
S11307200C945E04FC010590615070400110D8F7F0
S1130730809590958E0F9F1F0895FC016150704025
S113074001900110D8F7809590958E0F9F1F089502
S11307500F931F93CF93DF93FB01238121FD03C0EC
S11307608FEF9FEF2CC022FF16C046815781248152
S113077035814217530744F4A081B1819D012F5F55
S11307803F4F318320838C93268137812F5F3F4FE6
S11307903783268314C08B01EC01FB010084F185AF
S11307A0E02D0995892BE1F6D80116968D919C913F
S11307B01797019617969C938E931697CE01DF9107
S11307C0CF911F910F910895FA01AA27283051F172
S11307D0203181F1E8946F936E7F6E5F7F4F8F4F6E
S11307E09F4FAF4FB1E03ED0B4E03CD0670F781FCD
S11307F0891F9A1FA11D680F791F8A1F911DA11DB2
S11308006A0F711D811D911DA11D20D009F46894EA
S11308103F912AE0269F11243019305D3193DEF692
S1130820CF010895462F4770405D4193B3E00FD048
S1130830C9F7F6CF462F4F70405D4A3318F0495D33
S113084031FD4052419302D0A9F7EACFB4E0A69516
S11308509795879577956795BA95C9F70097610538
S1130860710508959B01AC010A2E0694579547958E
S113087037952795BA95C9F7620F731F841F951F83
S1130880A01D08952F923F924F925F926F927F9294
S11308908F929F92AF92BF92CF92DF92EF92FF928C
S11308A00F931F93CF93DF93CDB7DEB7CA1BDB0B38
S11308B00FB6F894DEBF0FBECDBF09942A883988DD
S11308C048885F846E847D848C849B84AA84B984E4
S11308D0C884DF80EE80FD800C811B81AA81B981F0
S11308E0CE0FD11D0FB6F894DEBF0FBECDBFED0104
S10908F00895F894FFCF07
S10F08F625642C25642C25642C2564004A
S9030000FC
